{
  "contractName": "SupplyChain",
  "abi": [
    {
      "constant": false,
      "inputs": [
        {
          "name": "account",
          "type": "address"
        }
      ],
      "name": "addConsumer",
      "outputs": [],
      "payable": false,
      "stateMutability": "nonpayable",
      "type": "function"
    },
    {
      "constant": true,
      "inputs": [
        {
          "name": "account",
          "type": "address"
        }
      ],
      "name": "isRetailer",
      "outputs": [
        {
          "name": "",
          "type": "bool"
        }
      ],
      "payable": false,
      "stateMutability": "view",
      "type": "function"
    },
    {
      "constant": false,
      "inputs": [],
      "name": "renounceConsumer",
      "outputs": [],
      "payable": false,
      "stateMutability": "nonpayable",
      "type": "function"
    },
    {
      "constant": false,
      "inputs": [],
      "name": "renounceDistributor",
      "outputs": [],
      "payable": false,
      "stateMutability": "nonpayable",
      "type": "function"
    },
    {
      "constant": false,
      "inputs": [
        {
          "name": "account",
          "type": "address"
        }
      ],
      "name": "addDistributor",
      "outputs": [],
      "payable": false,
      "stateMutability": "nonpayable",
      "type": "function"
    },
    {
      "constant": true,
      "inputs": [
        {
          "name": "account",
          "type": "address"
        }
      ],
      "name": "isConsumer",
      "outputs": [
        {
          "name": "",
          "type": "bool"
        }
      ],
      "payable": false,
      "stateMutability": "view",
      "type": "function"
    },
    {
      "constant": false,
      "inputs": [
        {
          "name": "account",
          "type": "address"
        }
      ],
      "name": "addRetailer",
      "outputs": [],
      "payable": false,
      "stateMutability": "nonpayable",
      "type": "function"
    },
    {
      "constant": true,
      "inputs": [
        {
          "name": "account",
          "type": "address"
        }
      ],
      "name": "isDistributor",
      "outputs": [
        {
          "name": "",
          "type": "bool"
        }
      ],
      "payable": false,
      "stateMutability": "view",
      "type": "function"
    },
    {
      "constant": false,
      "inputs": [],
      "name": "renounceRetailer",
      "outputs": [],
      "payable": false,
      "stateMutability": "nonpayable",
      "type": "function"
    },
    {
      "constant": false,
      "inputs": [
        {
          "name": "account",
          "type": "address"
        }
      ],
      "name": "addProducer",
      "outputs": [],
      "payable": false,
      "stateMutability": "nonpayable",
      "type": "function"
    },
    {
      "constant": true,
      "inputs": [
        {
          "name": "account",
          "type": "address"
        }
      ],
      "name": "isProducer",
      "outputs": [
        {
          "name": "",
          "type": "bool"
        }
      ],
      "payable": false,
      "stateMutability": "view",
      "type": "function"
    },
    {
      "constant": false,
      "inputs": [],
      "name": "renounceProducer",
      "outputs": [],
      "payable": false,
      "stateMutability": "nonpayable",
      "type": "function"
    },
    {
      "inputs": [],
      "payable": true,
      "stateMutability": "payable",
      "type": "constructor"
    },
    {
      "anonymous": false,
      "inputs": [
        {
          "indexed": false,
          "name": "upc",
          "type": "uint256"
        }
      ],
      "name": "Produced",
      "type": "event"
    },
    {
      "anonymous": false,
      "inputs": [
        {
          "indexed": false,
          "name": "upc",
          "type": "uint256"
        }
      ],
      "name": "PaidFor",
      "type": "event"
    },
    {
      "anonymous": false,
      "inputs": [
        {
          "indexed": false,
          "name": "upc",
          "type": "uint256"
        }
      ],
      "name": "Shipped",
      "type": "event"
    },
    {
      "anonymous": false,
      "inputs": [
        {
          "indexed": false,
          "name": "upc",
          "type": "uint256"
        }
      ],
      "name": "Received",
      "type": "event"
    },
    {
      "anonymous": false,
      "inputs": [
        {
          "indexed": false,
          "name": "upc",
          "type": "uint256"
        }
      ],
      "name": "Owned",
      "type": "event"
    },
    {
      "anonymous": false,
      "inputs": [
        {
          "indexed": true,
          "name": "account",
          "type": "address"
        }
      ],
      "name": "ConsumerAdded",
      "type": "event"
    },
    {
      "anonymous": false,
      "inputs": [
        {
          "indexed": true,
          "name": "account",
          "type": "address"
        }
      ],
      "name": "ConsumerRemoved",
      "type": "event"
    },
    {
      "anonymous": false,
      "inputs": [
        {
          "indexed": true,
          "name": "account",
          "type": "address"
        }
      ],
      "name": "RetailerAdded",
      "type": "event"
    },
    {
      "anonymous": false,
      "inputs": [
        {
          "indexed": true,
          "name": "account",
          "type": "address"
        }
      ],
      "name": "RetailerRemoved",
      "type": "event"
    },
    {
      "anonymous": false,
      "inputs": [
        {
          "indexed": true,
          "name": "account",
          "type": "address"
        }
      ],
      "name": "DistributorAdded",
      "type": "event"
    },
    {
      "anonymous": false,
      "inputs": [
        {
          "indexed": true,
          "name": "account",
          "type": "address"
        }
      ],
      "name": "DistributorRemoved",
      "type": "event"
    },
    {
      "anonymous": false,
      "inputs": [
        {
          "indexed": true,
          "name": "account",
          "type": "address"
        }
      ],
      "name": "ProducerAdded",
      "type": "event"
    },
    {
      "anonymous": false,
      "inputs": [
        {
          "indexed": true,
          "name": "account",
          "type": "address"
        }
      ],
      "name": "ProducerRemoved",
      "type": "event"
    },
    {
      "constant": false,
      "inputs": [],
      "name": "kill",
      "outputs": [],
      "payable": false,
      "stateMutability": "nonpayable",
      "type": "function"
    },
    {
      "constant": false,
      "inputs": [
        {
          "name": "_upc",
          "type": "uint256"
        },
        {
          "name": "_producerName",
          "type": "string"
        },
        {
          "name": "_producerPlantInformation",
          "type": "string"
        },
        {
          "name": "_producerPlantLatitude",
          "type": "string"
        },
        {
          "name": "_producerPlantLongitude",
          "type": "string"
        },
        {
          "name": "_productNotes",
          "type": "string"
        },
        {
          "name": "_retailerID",
          "type": "address"
        },
        {
          "name": "_distributorID",
          "type": "address"
        },
        {
          "name": "_productPrice",
          "type": "uint256"
        }
      ],
      "name": "produceDrug",
      "outputs": [],
      "payable": false,
      "stateMutability": "nonpayable",
      "type": "function"
    },
    {
      "constant": false,
      "inputs": [
        {
          "name": "_upc",
          "type": "uint256"
        }
      ],
      "name": "payForDrug",
      "outputs": [],
      "payable": true,
      "stateMutability": "payable",
      "type": "function"
    },
    {
      "constant": false,
      "inputs": [
        {
          "name": "_upc",
          "type": "uint256"
        }
      ],
      "name": "shipItem",
      "outputs": [],
      "payable": false,
      "stateMutability": "nonpayable",
      "type": "function"
    },
    {
      "constant": false,
      "inputs": [
        {
          "name": "_upc",
          "type": "uint256"
        }
      ],
      "name": "receiveItem",
      "outputs": [],
      "payable": false,
      "stateMutability": "nonpayable",
      "type": "function"
    },
    {
      "constant": false,
      "inputs": [
        {
          "name": "_upc",
          "type": "uint256"
        }
      ],
      "name": "buyDrug",
      "outputs": [],
      "payable": true,
      "stateMutability": "payable",
      "type": "function"
    },
    {
      "constant": true,
      "inputs": [
        {
          "name": "_upc",
          "type": "uint256"
        }
      ],
      "name": "fetchItemBufferOne",
      "outputs": [
        {
          "name": "itemSKU",
          "type": "uint256"
        },
        {
          "name": "itemUPC",
          "type": "uint256"
        },
        {
          "name": "ownerID",
          "type": "address"
        },
        {
          "name": "producerID",
          "type": "address"
        },
        {
          "name": "originFarmName",
          "type": "string"
        },
        {
          "name": "producerPlantInformation",
          "type": "string"
        },
        {
          "name": "producerPlantLatitude",
          "type": "string"
        },
        {
          "name": "producerPlantLongitude",
          "type": "string"
        }
      ],
      "payable": false,
      "stateMutability": "view",
      "type": "function"
    },
    {
      "constant": true,
      "inputs": [
        {
          "name": "_upc",
          "type": "uint256"
        }
      ],
      "name": "fetchItemBufferTwo",
      "outputs": [
        {
          "name": "itemSKU",
          "type": "uint256"
        },
        {
          "name": "itemUPC",
          "type": "uint256"
        },
        {
          "name": "productID",
          "type": "uint256"
        },
        {
          "name": "productNotes",
          "type": "string"
        },
        {
          "name": "productPrice",
          "type": "uint256"
        },
        {
          "name": "itemState",
          "type": "uint256"
        },
        {
          "name": "distributorID",
          "type": "address"
        },
        {
          "name": "retailerID",
          "type": "address"
        },
        {
          "name": "consumerID",
          "type": "address"
        }
      ],
      "payable": false,
      "stateMutability": "view",
      "type": "function"
    }
  ],
  "bytecode": "0x60806040526200001e33620000c3640100000000026401000000009004565b62000038336200012d640100000000026401000000009004565b620000523362000197640100000000026401000000009004565b6200006c3362000201640100000000026401000000009004565b33600460006101000a81548173ffffffffffffffffffffffffffffffffffffffff021916908373ffffffffffffffffffffffffffffffffffffffff16021790555060016006819055506001600581905550620003c3565b620000e78160006200026b64010000000002620027b7179091906401000000009004565b8073ffffffffffffffffffffffffffffffffffffffff167f2977383b0207d39ef14220620b6cf3e6c9b6e78592af90baeef6614ed2fcd2c660405160405180910390a250565b620001518160016200026b64010000000002620027b7179091906401000000009004565b8073ffffffffffffffffffffffffffffffffffffffff167fddbf200aa634dc3fb81cfd68583dd1040d1c751d335e1d86b631bde3e977fea860405160405180910390a250565b620001bb8160026200026b64010000000002620027b7179091906401000000009004565b8073ffffffffffffffffffffffffffffffffffffffff167f71ae26cad02663e3d92efd6ec56031a80d74a20c0ab4183faa8bf262261c9baa60405160405180910390a250565b620002258160036200026b64010000000002620027b7179091906401000000009004565b8073ffffffffffffffffffffffffffffffffffffffff167f28b26e7a3d20aedbc5f8f2ebf7da671c0491723a2b78f47a097b0e46dee0714260405160405180910390a250565b600073ffffffffffffffffffffffffffffffffffffffff168173ffffffffffffffffffffffffffffffffffffffff1614151515620002a857600080fd5b620002c382826200032e640100000000026401000000009004565b151515620002d057600080fd5b60018260000160008373ffffffffffffffffffffffffffffffffffffffff1673ffffffffffffffffffffffffffffffffffffffff16815260200190815260200160002060006101000a81548160ff0219169083151502179055505050565b60008073ffffffffffffffffffffffffffffffffffffffff168273ffffffffffffffffffffffffffffffffffffffff16141515156200036c57600080fd5b8260000160008373ffffffffffffffffffffffffffffffffffffffff1673ffffffffffffffffffffffffffffffffffffffff16815260200190815260200160002060009054906101000a900460ff16905092915050565b6129e780620003d36000396000f300608060405260043610610112576000357c0100000000000000000000000000000000000000000000000000000000900463ffffffff168063112940f91461011757806341c0e1b51461015a5780635da09b881461017157806361e6982d146101cc578063644241db146101e357806366225ff9146101fa5780637250e2241461035c57806377c459131461039f578063834ff739146105fd5780638ec4f505146106585780638f0c86fa1461069b5780639862648e146106f6578063a26be999146108cb578063d11daa6a146108f8578063db0e6a2f14610918578063ddf801661461092f578063f552102214610972578063f61c899a146109cd578063f874a065146109fa578063f9b867d814610a1a575b600080fd5b34801561012357600080fd5b50610158600480360381019080803573ffffffffffffffffffffffffffffffffffffffff169060200190929190505050610a31565b005b34801561016657600080fd5b5061016f610aba565b005b34801561017d57600080fd5b506101b2600480360381019080803573ffffffffffffffffffffffffffffffffffffffff169060200190929190505050610b4d565b604051808215151515815260200191505060405180910390f35b3480156101d857600080fd5b506101e1610b6a565b005b3480156101ef57600080fd5b506101f8610b75565b005b34801561020657600080fd5b5061022560048036038101908080359060200190929190505050610b80565b604051808a8152602001898152602001888152602001806020018781526020018681526020018573ffffffffffffffffffffffffffffffffffffffff1673ffffffffffffffffffffffffffffffffffffffff1681526020018473ffffffffffffffffffffffffffffffffffffffff1673ffffffffffffffffffffffffffffffffffffffff1681526020018373ffffffffffffffffffffffffffffffffffffffff1673ffffffffffffffffffffffffffffffffffffffff168152602001828103825288818151815260200191508051906020019080838360005b838110156103195780820151818401526020810190506102fe565b50505050905090810190601f1680156103465780820380516001836020036101000a031916815260200191505b509a505050505050505050505060405180910390f35b34801561036857600080fd5b5061039d600480360381019080803573ffffffffffffffffffffffffffffffffffffffff169060200190929190505050610da8565b005b3480156103ab57600080fd5b506103ca60048036038101908080359060200190929190505050610e57565b604051808981526020018881526020018773ffffffffffffffffffffffffffffffffffffffff1673ffffffffffffffffffffffffffffffffffffffff1681526020018673ffffffffffffffffffffffffffffffffffffffff1673ffffffffffffffffffffffffffffffffffffffff16815260200180602001806020018060200180602001858103855289818151815260200191508051906020019080838360005b8381101561048657808201518184015260208101905061046b565b50505050905090810190601f1680156104b35780820380516001836020036101000a031916815260200191505b50858103845288818151815260200191508051906020019080838360005b838110156104ec5780820151818401526020810190506104d1565b50505050905090810190601f1680156105195780820380516001836020036101000a031916815260200191505b50858103835287818151815260200191508051906020019080838360005b83811015610552578082015181840152602081019050610537565b50505050905090810190601f16801561057f5780820380516001836020036101000a031916815260200191505b50858103825286818151815260200191508051906020019080838360005b838110156105b857808201518184015260208101905061059d565b50505050905090810190601f1680156105e55780820380516001836020036101000a031916815260200191505b509c5050505050505050505050505060405180910390f35b34801561060957600080fd5b5061063e600480360381019080803573ffffffffffffffffffffffffffffffffffffffff1690602001909291905050506111ee565b604051808215151515815260200191505060405180910390f35b34801561066457600080fd5b50610699600480360381019080803573ffffffffffffffffffffffffffffffffffffffff16906020019092919050505061120b565b005b3480156106a757600080fd5b506106dc600480360381019080803573ffffffffffffffffffffffffffffffffffffffff169060200190929190505050611294565b604051808215151515815260200191505060405180910390f35b34801561070257600080fd5b506108c960048036038101908080359060200190929190803590602001908201803590602001908080601f0160208091040260200160405190810160405280939291908181526020018383808284378201915050505050509192919290803590602001908201803590602001908080601f0160208091040260200160405190810160405280939291908181526020018383808284378201915050505050509192919290803590602001908201803590602001908080601f0160208091040260200160405190810160405280939291908181526020018383808284378201915050505050509192919290803590602001908201803590602001908080601f0160208091040260200160405190810160405280939291908181526020018383808284378201915050505050509192919290803590602001908201803590602001908080601f0160208091040260200160405190810160405280939291908181526020018383808284378201915050505050509192919290803573ffffffffffffffffffffffffffffffffffffffff169060200190929190803573ffffffffffffffffffffffffffffffffffffffff169060200190929190803590602001909291905050506112b1565b005b3480156108d757600080fd5b506108f66004803603810190808035906020019092919050505061178c565b005b61091660048036038101908080359060200190929190505050611ada565b005b34801561092457600080fd5b5061092d611d95565b005b34801561093b57600080fd5b50610970600480360381019080803573ffffffffffffffffffffffffffffffffffffffff169060200190929190505050611da0565b005b34801561097e57600080fd5b506109b3600480360381019080803573ffffffffffffffffffffffffffffffffffffffff169060200190929190505050611e29565b604051808215151515815260200191505060405180910390f35b3480156109d957600080fd5b506109f860048036038101908080359060200190929190505050611e46565b005b610a1860048036038101908080359060200190929190505050612178565b005b348015610a2657600080fd5b50610a2f612448565b005b610a3a336111ee565b1515610aae576040517f08c379a00000000000000000000000000000000000000000000000000000000081526004018080602001828103825260208152602001807f66756e6374696f6e206973206c696d6974656420746f20436f6e73756d65727381525060200191505060405180910390fd5b610ab781612453565b50565b600460009054906101000a900473ffffffffffffffffffffffffffffffffffffffff1673ffffffffffffffffffffffffffffffffffffffff163373ffffffffffffffffffffffffffffffffffffffff161415610b4b57600460009054906101000a900473ffffffffffffffffffffffffffffffffffffffff1673ffffffffffffffffffffffffffffffffffffffff16ff5b565b6000610b638260026124ad90919063ffffffff16565b9050919050565b610b7333612541565b565b610b7e3361259b565b565b600080600060606000806000806000600760008b8152602001908152602001600020600001549850600760008b8152602001908152602001600020600101549750600760008b8152602001908152602001600020600801549650600760008b81526020019081526020016000206009018054600181600116156101000203166002900480601f016020809104026020016040519081016040528092919081815260200182805460018160011615610100020316600290048015610c845780601f10610c5957610100808354040283529160200191610c84565b820191906000526020600020905b815481529060010190602001808311610c6757829003601f168201915b50505050509550600760008b8152602001908152602001600020600a01549450600760008b8152602001908152602001600020600b0160009054906101000a900460ff166004811115610cd357fe5b9350600760008b8152602001908152602001600020600b0160019054906101000a900473ffffffffffffffffffffffffffffffffffffffff169250600760008b8152602001908152602001600020600c0160009054906101000a900473ffffffffffffffffffffffffffffffffffffffff169150600760008b8152602001908152602001600020600d0160009054906101000a900473ffffffffffffffffffffffffffffffffffffffff1690508888888888888789889850985098509850985098509850985098509193959799909294969850565b610db133611294565b1515610e4b576040517f08c379a00000000000000000000000000000000000000000000000000000000081526004018080602001828103825260278152602001807f66756e6374696f6e206973206f6e6c792076616c696420666f7220646973747281526020017f696275746f72730000000000000000000000000000000000000000000000000081525060400191505060405180910390fd5b610e54816125f5565b50565b600080600080606080606080600760008a8152602001908152602001600020600001549750600760008a8152602001908152602001600020600101549650600760008a815260200190815260200160002060020160009054906101000a900473ffffffffffffffffffffffffffffffffffffffff169550600760008a815260200190815260200160002060030160009054906101000a900473ffffffffffffffffffffffffffffffffffffffff169450600760008a81526020019081526020016000206004018054600181600116156101000203166002900480601f016020809104026020016040519081016040528092919081815260200182805460018160011615610100020316600290048015610fb15780601f10610f8657610100808354040283529160200191610fb1565b820191906000526020600020905b815481529060010190602001808311610f9457829003601f168201915b50505050509350600760008a81526020019081526020016000206005018054600181600116156101000203166002900480601f0160208091040260200160405190810160405280929190818152602001828054600181600116156101000203166002900480156110625780601f1061103757610100808354040283529160200191611062565b820191906000526020600020905b81548152906001019060200180831161104557829003601f168201915b50505050509250600760008a81526020019081526020016000206006018054600181600116156101000203166002900480601f0160208091040260200160405190810160405280929190818152602001828054600181600116156101000203166002900480156111135780601f106110e857610100808354040283529160200191611113565b820191906000526020600020905b8154815290600101906020018083116110f657829003601f168201915b50505050509150600760008a81526020019081526020016000206007018054600181600116156101000203166002900480601f0160208091040260200160405190810160405280929190818152602001828054600181600116156101000203166002900480156111c45780601f10611199576101008083540402835291602001916111c4565b820191906000526020600020905b8154815290600101906020018083116111a757829003601f168201915b50505050509050878787878787878797509750975097509750975097509750919395975091939597565b60006112048260036124ad90919063ffffffff16565b9050919050565b61121433610b4d565b1515611288576040517f08c379a00000000000000000000000000000000000000000000000000000000081526004018080602001828103825260208152602001807f46756e6374696f6e206973206c696d6974656420746f2052657461696c65727381525060200191505060405180910390fd5b6112918161264f565b50565b60006112aa8260016124ad90919063ffffffff16565b9050919050565b6112ba33611e29565b151561132e576040517f08c379a00000000000000000000000000000000000000000000000000000000081526004018080602001828103825260208152602001807f46756e6374696f6e206973206c696d6974656420746f2050726f64756365727381525060200191505060405180910390fd5b8860006007600083815260200190815260200160002060020160009054906101000a900473ffffffffffffffffffffffffffffffffffffffff1673ffffffffffffffffffffffffffffffffffffffff161415156113f3576040517f08c379a000000000000000000000000000000000000000000000000000000000815260040180806020018281038252601f8152602001807f5550432068617320616c7265616479206265656e20726567697374657265640081525060200191505060405180910390fd5b6101e06040519081016040528060065481526020018b81526020013373ffffffffffffffffffffffffffffffffffffffff1681526020013373ffffffffffffffffffffffffffffffffffffffff1681526020018a81526020018981526020018881526020018781526020016005546006540181526020018681526020018381526020016000600481111561148357fe5b81526020018473ffffffffffffffffffffffffffffffffffffffff1681526020018573ffffffffffffffffffffffffffffffffffffffff168152602001600073ffffffffffffffffffffffffffffffffffffffff16815250600760008c8152602001908152602001600020600082015181600001556020820151816001015560408201518160020160006101000a81548173ffffffffffffffffffffffffffffffffffffffff021916908373ffffffffffffffffffffffffffffffffffffffff16021790555060608201518160030160006101000a81548173ffffffffffffffffffffffffffffffffffffffff021916908373ffffffffffffffffffffffffffffffffffffffff16021790555060808201518160040190805190602001906115ac929190612916565b5060a08201518160050190805190602001906115c9929190612916565b5060c08201518160060190805190602001906115e6929190612916565b5060e0820151816007019080519060200190611603929190612916565b50610100820151816008015561012082015181600901908051906020019061162c929190612916565b5061014082015181600a015561016082015181600b0160006101000a81548160ff0219169083600481111561165d57fe5b021790555061018082015181600b0160016101000a81548173ffffffffffffffffffffffffffffffffffffffff021916908373ffffffffffffffffffffffffffffffffffffffff1602179055506101a082015181600c0160006101000a81548173ffffffffffffffffffffffffffffffffffffffff021916908373ffffffffffffffffffffffffffffffffffffffff1602179055506101c082015181600d0160006101000a81548173ffffffffffffffffffffffffffffffffffffffff021916908373ffffffffffffffffffffffffffffffffffffffff1602179055509050506001600654016006819055507f9d1715437821cd9a90cba5d1a68995c308d9ad9afc754ed9a1cff429760796e68a6040518082815260200191505060405180910390a150505050505050505050565b600061179733610b4d565b151561180b576040517f08c379a00000000000000000000000000000000000000000000000000000000081526004018080602001828103825260208152602001807f46756e6374696f6e206973206c696d6974656420746f2052657461696c65727381525060200191505060405180910390fd5b816002600481111561181957fe5b60076000838152602001908152602001600020600b0160009054906101000a900460ff16600481111561184857fe5b1415156118bd576040517f08c379a00000000000000000000000000000000000000000000000000000000081526004018080602001828103825260198152602001807f4974656d20686173206e6f74206265656e20736869707065640000000000000081525060200191505060405180910390fd5b60076000848152602001908152602001600020600c0160009054906101000a900473ffffffffffffffffffffffffffffffffffffffff1691503373ffffffffffffffffffffffffffffffffffffffff168273ffffffffffffffffffffffffffffffffffffffff16141515611999576040517f08c379a000000000000000000000000000000000000000000000000000000000815260040180806020018281038252600e8152602001807f57726f6e672072657461696c657200000000000000000000000000000000000081525060200191505060405180910390fd5b60076000848152602001908152602001600020600c0160009054906101000a900473ffffffffffffffffffffffffffffffffffffffff166007600085815260200190815260200160002060020160006101000a81548173ffffffffffffffffffffffffffffffffffffffff021916908373ffffffffffffffffffffffffffffffffffffffff160217905550600360076000858152602001908152602001600020600b0160006101000a81548160ff02191690836004811115611a5757fe5b02179055506005600660076000868152602001908152602001600020600a015402811515611a8157fe5b0460076000858152602001908152602001600020600a01819055507fa8142743f8f70a4c26f3691cf4ed59718381fb2f18070ec52be1f1022d8555576005546040518082815260200191505060405180910390a1505050565b6000808260036004811115611aeb57fe5b60076000838152602001908152602001600020600b0160009054906101000a900460ff166004811115611b1a57fe5b141515611bb5576040517f08c379a000000000000000000000000000000000000000000000000000000000815260040180806020018281038252602a8152602001807f4974656d20686173206e6f74206265656e20726563656976656420627920746881526020017f652072657461696c65720000000000000000000000000000000000000000000081525060400191505060405180910390fd5b611bbe336111ee565b1515611c32576040517f08c379a00000000000000000000000000000000000000000000000000000000081526004018080602001828103825260208152602001807f66756e6374696f6e206973206c696d6974656420746f20436f6e73756d65727381525060200191505060405180910390fd5b60076000858152602001908152602001600020600c0160009054906101000a900473ffffffffffffffffffffffffffffffffffffffff16925060076000858152602001908152602001600020600a015491508273ffffffffffffffffffffffffffffffffffffffff166108fc839081150290604051600060405180830381858888f19350505050158015611cca573d6000803e3d6000fd5b50336007600086815260200190815260200160002060020160006101000a81548173ffffffffffffffffffffffffffffffffffffffff021916908373ffffffffffffffffffffffffffffffffffffffff160217905550600460076000868152602001908152602001600020600b0160006101000a81548160ff02191690836004811115611d5357fe5b02179055507f4bea4fa538d41a7b7fb10bb3405cf3e168122aa3438625bbf0ac6dde64fbdb0c846040518082815260200191505060405180910390a150505050565b611d9e336126a9565b565b611da933611e29565b1515611e1d576040517f08c379a00000000000000000000000000000000000000000000000000000000081526004018080602001828103825260208152602001807f46756e6374696f6e206973206c696d6974656420746f2050726f64756365727381525060200191505060405180910390fd5b611e2681612703565b50565b6000611e3f8260006124ad90919063ffffffff16565b9050919050565b6000611e5133611294565b1515611eeb576040517f08c379a00000000000000000000000000000000000000000000000000000000081526004018080602001828103825260278152602001807f66756e6374696f6e206973206f6e6c792076616c696420666f7220646973747281526020017f696275746f72730000000000000000000000000000000000000000000000000081525060400191505060405180910390fd5b8160016004811115611ef957fe5b60076000838152602001908152602001600020600b0160009054906101000a900460ff166004811115611f2857fe5b141515611f9d576040517f08c379a000000000000000000000000000000000000000000000000000000000815260040180806020018281038252601e8152602001807f4472756720686173206e6f74206265656e207061696420666f7220796574000081525060200191505060405180910390fd5b60076000848152602001908152602001600020600b0160019054906101000a900473ffffffffffffffffffffffffffffffffffffffff1691503373ffffffffffffffffffffffffffffffffffffffff168273ffffffffffffffffffffffffffffffffffffffff16141515612079576040517f08c379a00000000000000000000000000000000000000000000000000000000081526004018080602001828103825260118152602001807f57726f6e67204469737472696275746f7200000000000000000000000000000081525060200191505060405180910390fd5b60076000848152602001908152602001600020600b0160019054906101000a900473ffffffffffffffffffffffffffffffffffffffff166007600085815260200190815260200160002060020160006101000a81548173ffffffffffffffffffffffffffffffffffffffff021916908373ffffffffffffffffffffffffffffffffffffffff160217905550600260076000858152602001908152602001600020600b0160006101000a81548160ff0219169083600481111561213757fe5b02179055507ff00b9a5725b80c54016f42114f6ed7792d22eecb116011c4afac29c57bef6c95836040518082815260200191505060405180910390a1505050565b600080826000600481111561218957fe5b60076000838152602001908152602001600020600b0160009054906101000a900460ff1660048111156121b857fe5b14151561222d576040517f08c379a000000000000000000000000000000000000000000000000000000000815260040180806020018281038252601e8152602001807f4472756720686173206e6f74206265656e2070726f647563656420796574000081525060200191505060405180910390fd5b61223633610b4d565b15156122aa576040517f08c379a00000000000000000000000000000000000000000000000000000000081526004018080602001828103825260208152602001807f46756e6374696f6e206973206c696d6974656420746f2052657461696c65727381525060200191505060405180910390fd5b8360076000828152602001908152602001600020600a01543410151515612339576040517f08c379a000000000000000000000000000000000000000000000000000000000815260040180806020018281038252601f8152602001807f4e6f7420656e6f7567682066756e647320696e20746865206d6573736167650081525060200191505060405180910390fd5b6007600086815260200190815260200160002060030160009054906101000a900473ffffffffffffffffffffffffffffffffffffffff16935060076000868152602001908152602001600020600a015492508373ffffffffffffffffffffffffffffffffffffffff166108fc849081150290604051600060405180830381858888f193505050501580156123d1573d6000803e3d6000fd5b50600160076000878152602001908152602001600020600b0160006101000a81548160ff0219169083600481111561240557fe5b02179055507fcfd020349787a2235b0fe1fb3054cf07f62b63ed961492c317895cf0445572ef856040518082815260200191505060405180910390a15050505050565b6124513361275d565b565b6124678160036127b790919063ffffffff16565b8073ffffffffffffffffffffffffffffffffffffffff167f28b26e7a3d20aedbc5f8f2ebf7da671c0491723a2b78f47a097b0e46dee0714260405160405180910390a250565b60008073ffffffffffffffffffffffffffffffffffffffff168273ffffffffffffffffffffffffffffffffffffffff16141515156124ea57600080fd5b8260000160008373ffffffffffffffffffffffffffffffffffffffff1673ffffffffffffffffffffffffffffffffffffffff16815260200190815260200160002060009054906101000a900460ff16905092915050565b61255581600361286790919063ffffffff16565b8073ffffffffffffffffffffffffffffffffffffffff167fe3f5ed5f263f1f01764a96edfc7d025f511ec5f7d180e8816908b78bcf74f09860405160405180910390a250565b6125af81600161286790919063ffffffff16565b8073ffffffffffffffffffffffffffffffffffffffff167f126174f6cf49c81cdb4a9214c6b8f037bef55b4ec31e4fc776cea2a1c8a88d5960405160405180910390a250565b6126098160016127b790919063ffffffff16565b8073ffffffffffffffffffffffffffffffffffffffff167fddbf200aa634dc3fb81cfd68583dd1040d1c751d335e1d86b631bde3e977fea860405160405180910390a250565b6126638160026127b790919063ffffffff16565b8073ffffffffffffffffffffffffffffffffffffffff167f71ae26cad02663e3d92efd6ec56031a80d74a20c0ab4183faa8bf262261c9baa60405160405180910390a250565b6126bd81600261286790919063ffffffff16565b8073ffffffffffffffffffffffffffffffffffffffff167fdb7176e79cffef81cb01767dd0447a0b24bb72ca9778d4b245581086b2a7e6db60405160405180910390a250565b6127178160006127b790919063ffffffff16565b8073ffffffffffffffffffffffffffffffffffffffff167f2977383b0207d39ef14220620b6cf3e6c9b6e78592af90baeef6614ed2fcd2c660405160405180910390a250565b61277181600061286790919063ffffffff16565b8073ffffffffffffffffffffffffffffffffffffffff167fb78e9906c5bae930ccf756a5214c9855b1782f0eb30f9566de2384f034af48f360405160405180910390a250565b600073ffffffffffffffffffffffffffffffffffffffff168173ffffffffffffffffffffffffffffffffffffffff16141515156127f357600080fd5b6127fd82826124ad565b15151561280957600080fd5b60018260000160008373ffffffffffffffffffffffffffffffffffffffff1673ffffffffffffffffffffffffffffffffffffffff16815260200190815260200160002060006101000a81548160ff0219169083151502179055505050565b600073ffffffffffffffffffffffffffffffffffffffff168173ffffffffffffffffffffffffffffffffffffffff16141515156128a357600080fd5b6128ad82826124ad565b15156128b857600080fd5b60008260000160008373ffffffffffffffffffffffffffffffffffffffff1673ffffffffffffffffffffffffffffffffffffffff16815260200190815260200160002060006101000a81548160ff0219169083151502179055505050565b828054600181600116156101000203166002900490600052602060002090601f016020900481019282601f1061295757805160ff1916838001178555612985565b82800160010185558215612985579182015b82811115612984578251825591602001919060010190612969565b5b5090506129929190612996565b5090565b6129b891905b808211156129b457600081600090555060010161299c565b5090565b905600a165627a7a72305820d725fd789b4634449dc93456f5e2d7a450d1020e953be5a0b81792c9504bc7bb0029",
  "source": "pragma solidity ^0.4.24;\nimport {ProducerRole} from \"../pharmaaccesscontrol/ProducerRole.sol\";\nimport {DistributorRole} from \"../pharmaaccesscontrol/DistributorRole.sol\";\nimport {RetailerRole} from \"../pharmaaccesscontrol/RetailerRole.sol\";\nimport {ConsumerRole} from \"../pharmaaccesscontrol/ConsumerRole.sol\";\nimport {Ownable} from \"../pharmacore/Ownable.sol\";\n\n// Define a contract 'Supplychain'\ncontract SupplyChain is ProducerRole, DistributorRole, RetailerRole, ConsumerRole{\n  // Define 'owner'\n  address owner;\n\n  // Define a variable called 'upc' for Universal Product Code (UPC)\n  uint  upc;\n\n  // Define a variable called 'sku' for Stock Keeping Unit (SKU)\n  uint  sku;\n\n  // Define a public mapping 'items' that maps the UPC to an Item.\n  mapping (uint => Item) items;\n\n  // Define a public mapping 'itemsHistory' that maps the UPC to an array of TxHash, \n  // that track its journey through the supply chain -- to be sent from DApp.\n  mapping (uint => string[]) itemsHistory;\n  \n  // Define enum 'State' with the following values:\n  enum State \n  { \n    Produced,  // 0\n    PaidFor, // 1\n    Shipped,    // 2\n    Received,   // 3\n    Owned  // 4\n    }\n\n  State constant defaultState = State.Produced;\n\n  // Define a struct 'Item' with the following fields:\n  struct Item {\n    uint    sku;  // Stock Keeping Unit (SKU)\n    uint    upc; // Universal Product Code (UPC), generated by the Farmer, goes on the package, can be verified by the Consumer\n    address ownerID;  // Metamask-Ethereum address of the current owner as the product moves through 8 stages\n    address producerID; // Metamask-Ethereum address of the Farmer\n    string  producerName; // Farmer Name\n    string  producerPlantInformation;  // Farmer Information\n    string  producerPlantLatitude; // Farm Latitude\n    string  producerPlantLongitude;  // Farm Longitude\n    uint    productID;  // Product ID potentially a combination of upc + sku\n    string  productNotes; // Product Notes\n    uint    productPrice; // Product Price\n    State   itemState;  // Product State as represented in the enum above\n    address distributorID;  // Metamask-Ethereum address of the Distributor\n    address retailerID; // Metamask-Ethereum address of the Retailer\n    address consumerID; // Metamask-Ethereum address of the Consumer\n  }\n\n  // Define 8 events with the same 8 state values and accept 'upc' as input argument\n  event Produced(uint upc);\n  event PaidFor(uint upc);\n  event Shipped(uint upc);\n  event Received(uint upc);\n  event Owned(uint upc);\n\n  // Define a modifer that checks to see if msg.sender == owner of the contract\n  modifier onlyOwner() {\n    require(msg.sender == owner, \"this function is only reserved for the contract owner\");\n    _;\n  }\n\n  // Define a modifer that verifies the Caller\n  modifier verifyCaller (address _address) {\n    require(msg.sender == _address, \"wrong caller\"); \n    _;\n  }\n\n  modifier upcAvailable(uint _upc){\n    require(items[_upc].ownerID==0, \"UPC has already been registered\"); \n    _;\n  }\n\n  // Define a modifier that checks if the paid amount is sufficient to cover the price\n  modifier canPayDrug(uint _upc) { \n    require(msg.value >= items[_upc].productPrice, \"Not enough funds in the message\"); \n    _;\n  }\n  \n  // Define a modifier that checks the price and refunds the remaining balance\n  modifier checkValue(uint _upc) {\n    _;\n    uint _price = items[_upc].productPrice;\n    uint amountToReturn = msg.value - _price;\n    items[_upc].consumerID.transfer(amountToReturn);\n  }\n\n  // Define a modifier that checks if an item.state of a upc is Produced\n  modifier produced(uint _upc) {\n    require(items[_upc].itemState == State.Produced, \"Drug has not been produced yet\");\n    _;\n  }\n\n  modifier paidFor(uint _upc) {\n    require(items[_upc].itemState == State.PaidFor, \"Drug has not been paid for yet\");\n    _;\n  }\n  \n  // Define a modifier that checks if an item.state of a upc is Shipped\n  modifier shipped(uint _upc) {\n    require(items[_upc].itemState == State.Shipped, \"Item has not been shipped\");\n    _;\n  }\n\n  // Define a modifier that checks if an item.state of a upc is Received\n  modifier received(uint _upc) {\n    require(items[_upc].itemState == State.Received, \"Item has not been received by the retailer\");\n    _;\n  }\n\n  // In the constructor set 'owner' to the address that instantiated the contract\n  // and set 'sku' to 1\n  // and set 'upc' to 1\n  constructor() public payable {\n    owner = msg.sender;\n    sku = 1;\n    upc = 1;\n  }\n\n  // Define a function 'kill' if required\n  function kill() public {\n    if (msg.sender == owner) {\n      selfdestruct(owner);\n    }\n  }\n\n  // Define a function 'produceDrug' that allows a farmer to mark an item 'Produced'\n  function produceDrug(uint _upc, string _producerName, string _producerPlantInformation, string  _producerPlantLatitude, string  _producerPlantLongitude, string  _productNotes, address _retailerID, address _distributorID, uint _productPrice) public onlyProducer() upcAvailable(_upc)\n  {\n    \n    // Add the new item as part of Harvest\n    items[_upc] = Item({sku: sku, upc: _upc, ownerID: msg.sender, producerID: msg.sender, producerName: _producerName, producerPlantInformation: _producerPlantInformation, producerPlantLatitude: _producerPlantLatitude, producerPlantLongitude: _producerPlantLongitude,productID: sku+upc ,productNotes: _productNotes, productPrice: _productPrice, itemState: State.Produced, distributorID: _distributorID, retailerID: _retailerID, consumerID: address(0) });\n    // Increment sku\n    sku = sku + 1;\n    // Emit the appropriate event\n    emit Produced(_upc);\n  }\n\n  function payForDrug(uint _upc) public produced(_upc) onlyRetailer() canPayDrug(_upc) payable{\n\n    address producer = items[_upc].producerID;\n    uint drugPrice = items[_upc].productPrice;\n\n    producer.transfer(drugPrice);\n    items[_upc].itemState = State.PaidFor;\n    emit PaidFor(_upc);\n  }\n\n  // Define a function 'shipItem' that allows the distributor to mark an item 'Shipped'\n  // Use the above modifers to check if the item is sold\n  function shipItem(uint _upc) public onlyDistributor() paidFor(_upc)\n    // Call modifier to check if upc has passed previous supply chain stage\n    \n    // Call modifier to verify caller of this function\n    \n    {\n    address targetDistributor = items[_upc].distributorID;\n    require(targetDistributor == msg.sender, \"Wrong Distributor\");\n\n    items[_upc].ownerID = items[_upc].distributorID;\n    items[_upc].itemState = State.Shipped;\n    // Update the appropriate fields\n    emit Shipped(_upc);\n    // Emit the appropriate event\n    \n  }\n\n  // Define a function 'receiveItem' that allows the retailer to mark an item 'Received'\n  // Use the above modifiers to check if the item is shipped\n  function receiveItem(uint _upc) public onlyRetailer() shipped(_upc) //onlyRetailer()\n    // Call modifier to check if upc has passed previous supply chain stage\n    \n    // Access Control List enforced by calling Smart Contract / DApp\n    {\n    address targetRetailer = items[_upc].retailerID;\n    require(targetRetailer == msg.sender, \"Wrong retailer\");\n\n    items[_upc].ownerID = items[_upc].retailerID;\n    items[_upc].itemState = State.Received;\n    items[_upc].productPrice = (items[_upc].productPrice * 6) / 5;\n    // Update the appropriate fields\n    emit Received(upc);\n    // Emit the appropriate event\n    \n  }\n\n  // Define a function 'purchaseItem' that allows the consumer to mark an item 'Purchased'\n  // Use the above modifiers to check if the item is received\n  function buyDrug(uint _upc) public  received(_upc) onlyConsumer() payable\n    // Call modifier to check if upc has passed previous supply chain stage\n    \n    // Access Control List enforced by calling Smart Contract / DApp\n    {\n    address seller = items[_upc].retailerID;\n    uint price = items[_upc].productPrice;\n    // Update the appropriate fields - ownerID, consumerID, itemState\n    seller.transfer(price);\n    items[_upc].ownerID = msg.sender;\n    items[_upc].itemState = State.Owned;\n    \n    // Emit the appropriate event\n    emit Owned(_upc);\n  }\n\n  // Define a function 'fetchItemBufferOne' that fetches the data\n  function fetchItemBufferOne(uint _upc) public view returns \n  (\n  uint    itemSKU,\n  uint    itemUPC,\n  address ownerID,\n  address producerID,\n  string  originFarmName,\n  string  producerPlantInformation,\n  string  producerPlantLatitude,\n  string  producerPlantLongitude\n  ) \n  {\n  // Assign values to the 8 parameters\n  \n  itemSKU = items[_upc].sku;\n  itemUPC = items[_upc].upc;\n  ownerID = items[_upc].ownerID;\n  producerID = items[_upc].producerID;\n  originFarmName = items[_upc].producerName;\n  producerPlantInformation = items[_upc].producerPlantInformation;\n  producerPlantLatitude = items[_upc].producerPlantLatitude;\n  producerPlantLongitude = items[_upc].producerPlantLongitude;\n  return \n  (\n  itemSKU,\n  itemUPC,\n  ownerID,\n  producerID,\n  originFarmName,\n  producerPlantInformation,\n  producerPlantLatitude,\n  producerPlantLongitude\n  );\n  }\n\n  // Define a function 'fetchItemBufferTwo' that fetches the data\n  function fetchItemBufferTwo(uint _upc) public view returns \n  (\n  uint    itemSKU,\n  uint    itemUPC,\n  uint    productID,\n  string  productNotes,\n  uint    productPrice,\n  uint    itemState,\n  address distributorID,\n  address retailerID,\n  address consumerID\n  ) \n  {\n    // Assign values to the 9 parameters\n  itemSKU = items[_upc].sku;\n  itemUPC = items[_upc].upc;\n  \n  productID = items[_upc].productID;\n  productNotes = items[_upc].productNotes;\n  productPrice = items[_upc].productPrice;\n  itemState = uint(items[_upc].itemState);\n  distributorID = items[_upc].distributorID;\n  retailerID = items[_upc].retailerID;\n  consumerID = items[_upc].consumerID;\n    \n  return \n  (\n  itemSKU,\n  itemUPC,\n  productID,\n  productNotes,\n  productPrice,\n  itemState,\n  retailerID,\n  distributorID,\n  consumerID\n  );\n  }\n}\n",
  "sourcePath": "/Users/avargaslugo/nd1309-Project-6b-Example-Template/project-6/contracts/pharmabase/SupplyChain.sol",
  "compiler": {
    "name": "solc",
    "version": "0.4.24+commit.e67f0147.Emscripten.clang"
  },
  "schemaVersion": "2.0.1",
  "updatedAt": "2019-04-14T15:25:08.000Z"
}